S0100000414453525F305F312E73726563CB
S11300000C9434000C9451000C9451000C94510045
S11300100C9451000C94F8050C9451000C9451006C
S11300200C9451000C9451000C9451000C94510008
S11300300C9451000C9451000C94D9050C9451006B
S11300400C9451000C9451000C9451000C945100E8
S11300500C9451000C9457050C9451000C945100CD
S11300600C9451000C94510011241FBECFEFD4E026
S1130070DEBFCDBF11E0A0E0B1E0E0EDFCE002C0E6
S113008005900D92A230B107D9F721E0A2E0B1E0CA
S113009001C01D92AB33B207E1F70E9415050C9421
S11300A066060C9400008EE284B917B880EC8BB914
S11300B08FE08AB908952F923F924F925F926F9288
S11300C07F928F929F92AF92BF92CF92DF92EF92E4
S11300D0FF920F931F93CF93DF93CDB7DEB7609753
S11300E00FB6F894DEBF0FBECDBFF89480911F0108
S11300F0823009F419C118F4813041F093C383307C
S113010009F480C2843009F4A9C28CC38091060129
S1130110882309F46CC000911701109118012091F3
S1130120190130911A018091070190910801A09161
S11301300901B0910A014FEF5FEF6FEF7FE7401BBA
S1130140510B620B730B481759076A077B0700F5BD
S11301508FEF9FEFAFEFBFE78093170190931801E4
S1130160A0931901B0931A0180912401882341F0CE
S113017084E080931F018BB18F608BB95B9822C0A0
S113018082E080931F018BB18F608BB95A981AC09B
S1130190E7E1F1E04081518162817381809107013F
S11301A090910801A0910901B0910A01B695A79513
S11301B097958795840F951FA61FB71F80839183FA
S11301C0A283B3838091170190911801A091190122
S11301D0B0911A01880F991FAA1FBB1F80931B019E
S11301E090931C01A0931D01B0931E011BC30F2EFD
S11301F0F7E1CF2EF1E0DF2EF02DF6018081918121
S1130200A281B38120913001309131014FEF5FEF32
S11302106FEF7FE97A018B01E81AF90A0A0B1B0BCD
S1130220C801B7012C5F3F4F220F331F40E050E05D
S11302300E941306DA01C901880F991FAA1FBB1F68
S1130240820F931FA41FB51FAC01BD01769567955E
S1130250579547957695679557954795409302012D
S1130260509303016093040170930501F6018081AA
S11302709181A281B3810F2E44244A94542C642C7E
S1130280FFE77F2EF02D481A590A6A0A7B0ADB0120
S1130290CA010197AF4FBF4F84159505A605B70551
S11302A000F18FEF9FEFAFEFBFE7809317019093BB
S11302B01801A0931901B0931A0180912401882395
S11302C041F084E080931F018BB18F608BB95B9800
S11302D016C082E080931F018BB18F608BB95A984E
S11302E00EC0E7E1F1E080819181A281B381840FA6
S11302F0951FA61FB71F80839183A283B383809128
S1130300170190911801A0911901B0911A01880F59
S1130310991FAA1FBB1F80931B0190931C01A093DC
S11303201D01B0931E017EC280910601882309F449
S113033090C08091170190911801A0911901B0917A
S11303401A0140910B0150910C0160910D017091C3
S11303500E01A0900F01B0901001C0901101D09037
S11303601201A982BA82CB82DC825C016D011A017E
S11303702B01282F3B2D4C2D5D2D60E070E080E09B
S113038090E0A22CB32CC42CD52CE12CF12C00E051
S113039010E00E945406C980DA80EB80FC80F69459
S11303A0E794D794C79416012701AC2CB32CC42C22
S11303B0D52CE12CF12C0E945D06E4F480910F0110
S11303C090911001A0911101B0911201B695A795D9
S11303D0979587958093170190931801A09319011D
S11303E0B0931A0183E080931F018BB18F608BB9A6
S11303F059981AC0E7E1F1E080819181A281B3812B
S113040040910B0150910C0160910D0170910E010E
S11304107695679557954795841B950BA60BB70B57
S113042080839183A283B3838091170190911801F3
S1130430A0911901B0911A01880F991FAA1FBB1F1F
S113044080931B0190931C01A0931D01B0931E0186
S1130450E9C107E111E0F8014081518162817381B2
S11304600F2EFFE0AF2EF1E0BF2EF02DF5018081BD
S11304709181A281B3812091320130913301B695EB
S1130480A795979587956A017B01C81AD90AEA0A44
S1130490FB0AC701B601A901440F551F240F351FDC
S11304A0245F3F4F40E050E00E941306DA01C90187
S11304B0880F991FAA1FBB1F820F931FA41FB51F6C
S11304C0BC01CD01660F771F881F991F660F771F28
S11304D0881F991F2AE030E040E050E00E94130694
S11304E029013A012093020130930301409304014E
S11304F050930501F80180819181A281B381F501B6
S113050040815181628173815C016D01E12CF12C88
S113051087018987BA86CB86DC86ED86FE860F87BF
S1130520188B7695679557954795415051096F4FAC
S11305307F4F6A017B012A2D3B2D4B855C8560E052
S113054070E080E090E0AC2CBD2CCE2CDF2CE12CB4
S1130550F12C00E010E00E94540663015201E12CEA
S1130560F12C87014982BA82CB82DC82ED82FE8241
S11305700F831887E12CF12C00E010E00E945D0647
S1130580D4F4E7E1F1E080819181A281B381440C4C
S1130590551C661C771C84199509A609B709808324
S11305A09183A283B38383E080931F018BB18F6017
S11305B08BB9599812C0E7E1F1E080819181A28161
S11305C0B381440C551C661C771C84199509A60933
S11305D0B70980839183A283B3838091170190919B
S11305E01801A0911901B0911A01880F991FAA1F2F
S11305F0BB1F80931B0190931C01A0931D01B0931A
S11306001E0110C180910F0190911001A091110160
S1130610B0911201B695A79597958795E7E1F1E01A
S113062080839183A283B38380819181A281B381EA
S1130630880F991FAA1FBB1F80931B0190931C0155
S1130640A0931D01B0931E014C9BECC084E08093E9
S11306501F018BB18F608BB95B98E4C08091060158
S1130660882309F458C040911701509118016091F2
S1130670190170911A018091130190911401A091B4
S11306801501B091160184179507A607B707A0F0C6
S113069010921701109218011092190110921A0168
S11306A010921F018BB18F608BB9299A109223018C
S11306B081E0809321011AC0E7E1F1E0808191811A
S11306C0A281B381409113015091140160911501ED
S11306D0709116017695679557954795841B950BF0
S11306E0A60BB70B80839183A283B38380911701F8
S11306F090911801A0911901B0911A01880F991FC6
S1130700AA1FBB1F80931B0190931C01A0931D0182
S1130710B0931E0187C007E111E0F8016081718187
S1130720828193812091360130913701A901440FD0
S1130730551F240F351F245F3F4F40E050E00E94B7
S11307401306DA01C901880F991FAA1FBB1F820F64
S1130750931FA41FB51FAC01BD01769567955795EE
S113076047954093020150930301609304017093F1
S11307700501F8014080518062807380DB01CA0169
S11307800197AF4FBF4F481659066A067B06A0F47F
S113079010921701109218011092190110921A0167
S11307A010921F018BB18F608BB9299A109223018B
S11307B081E08093210122C0E7E1F1E08081918111
S11307C0A281B3812A013B01689412F8769467945C
S11307D0579447941694D1F7487F7F77440D551D5D
S11307E0661D771D440F551F661F771F841B950BCD
S11307F0A60BB70B80839183A283B38380911701E7
S113080090911801A0911901B0911A01880F991FB4
S1130810AA1FBB1F80931B0190931C01A0931D0171
S1130820B0931E01789460960FB6F894DEBF0FBEA5
S1130830CDBFDF91CF911F910F91FF90EF90DF908B
S1130840CF90BF90AF909F908F907F906F905F906C
S11308504F903F902F90089580E480937C0087E828
S113086080937A0080E180936D0084E08093680037
S113087081E58CBD089510922F01ECE7F0E08081B2
S113088080838BB18F608BB92A9A0895AF92BF92FF
S1130890CF92DF92EF92FF920F931F93CF93DF9348
S11308A020912701309128018091380190913901DC
S11308B0280F391FE0E3F1E03183208320912901DF
S11308C030912A01280F391F0F2EF2E3AF2EF1E0E9
S11308D0BF2EF02DD50111963C932E9320912B0120
S11308E030912C0104E311E0D80111963C932E932E
S11308F020912D0130912E01820F931F209125010B
S113090030912601820F931FC6E3D1E09983888337
S1130910208131812E5F3F4F3695279540E050E08E
S1130920C12CD12C76016894F5F8C701B6010E9458
S11309303506209307013093080140930901509331
S11309400A01F501208131812E5F3F4F36952795AD
S113095040E050E0C701B6010E94350620930B0128
S113096030930C0140930D0150930E01D8018D91E9
S11309709C91A0E0B0E0072E76E1880F991FAA1F92
S1130980BB1F7A95D1F7702D80930F0190931001BE
S1130990A0931101B0931201288139812E5F3F4F3A
S11309A03695279540E050E0C701B6010E94350610
S11309B020931301309314014093150150931601B1
S11309C0DF91CF911F910F91FF90EF90DF90CF9027
S11309D0BF90AF900895F8942A9880911B0190914C
S11309E01C01A0911D01B0911E01072E74E1B69562
S11309F0A795979587957A95D1F7702D90639EBDAD
S1130A000DB407FEFDCF9EB58EBD0DB407FEFDCF20
S1130A108EB52A9A7894089582E084BD94E095BDB9
S1130A2096E297BD80936E000895F8940E94530057
S1130A300E942C040E940C050E943B047894EAE76F
S1130A40F0E0808188608083808180648083CFE14E
S1130A50D1E011E0012F80913A01882339F01092FE
S1130A603A018BB18F608BB958981883809120011B
S1130A70882389F3109220014F9B03C01092240114
S1130A8002C00093240180912401909122019813C3
S1130A901883809322014E9B03C01092060102C06A
S1130AA0009306010E945B000E94EB04D4CF1F92C6
S1130AB00F920FB60F9211242F933F934F935F938E
S1130AC06F937F938F939F93AF93BF93EF93FF9312
S1130AD080912F018230F1F028F4882349F081308D
S1130AE081F03BC0843041F1F0F0853071F135C0C4
S1130AF0809178009091790090932601809325014C
S1130B002CC0809178009091790090933901809362
S1130B10380123C0809178009091790090932A0144
S1130B20809329011AC08091780090917900909364
S1130B3028018093270111C0809178009091790059
S1130B4090932E0180932D0108C08091780090919C
S1130B50790090932C0180932B010E94460480918C
S1130B602F018F5F863018F480932F0102C01092FA
S1130B702F01ECE7F0E08081807F80839081809179
S1130B802F01892B8083EAE7F0E0808180648083F1
S1130B90FF91EF91BF91AF919F918F917F916F9151
S1130BA05F914F913F912F910F900FBE0F901F9027
S1130BB018951F920F920FB60F9211248F93809164
S1130BC02101882361F0809123018F5F80932301A9
S1130BD080912301893018F029981092210181E035
S1130BE0809320018F910F900FBE0F901F90189546
S1130BF01F920F920FB60F9211248F939F9389B176
S1130C0090910001982794FF05C084FD03C091E0F2
S1130C1090933A01809300019F918F910F900FBEA2
S1130C200F901F901895A1E21A2EAA1BBB1BFD0161
S1130C300DC0AA1FBB1FEE1FFF1FA217B307E407B7
S1130C40F50720F0A21BB30BE40BF50B661F771F0F
S1130C50881F991F1A9469F76095709580959095EF
S1130C609B01AC01BD01CF010895052E97FB1EF435
S1130C7000940E944C0657FD07D00E94130607FCFF
S1130C8003D04EF40C944C06509540953095219524
S1130C903F4F4F4F5F4F08959095809570956195A4
S1130CA07F4F8F4F9F4F08952A193B094C095D09C7
S1130CB06E097F09800B910B08952A153B054C059D
S1130CC05D056E057F05800791070895F894FFCFB1
S1050CD002001C
S9030000FC
